:100000000C942A000C9447000C9447000C94470071
:100010000C9447000C9447000C9447000C94470044
:100020000C9447000C9447000C945F010C9447001B
:100030000C9447000C94CF010C940A020C944700D6
:100040000C9447000C9447000C9447000C94470014
:100050000C94470011241FBECFE5D8E0DEBFCDBF12
:1000600010E0A0E6B0E0E8E1FBE002C005900D92F0
:10007000AE3DB107D9F721E0AEEDB0E001C01D9271
:10008000A237B207E1F70E94B1000C948A050C94E4
:10009000000084E886B980E487B9369A3699FECFA5
:1000A00084B195B1089597B1907E8F71892B87B9EE
:1000B000369A3699FECF84B195B1089587EE81BB0B
:1000C00088E182BB089520B330E0A90102C05595B4
:1000D00047958A95E2F7CA0181700895FC01108264
:1000E0007583648373836283418347834683089562
:1000F000FC01908181819817B8F4A481B5819D019C
:100100002F5F3F4F6C938781815019F48181281BA9
:1001100031098783358324839FB7F89480818F5F6B
:1001200080839FBF81E0089580E008958AEE8CBFB0
:1001300012BE8DE083BF89B7826089BF089578942D
:100140000E94490060E07BE480E090E00E9476013C
:100150009093E1008093E0000E945E000E94960070
:100160000895CF93DF93CDB7DEB7C154D1090FB651
:10017000F894DEBF0FBECDBF0E949F008DE2E0E687
:10018000F0E0DE01119601900D928A95E1F7CE0123
:1001900001960E94BA012FEF83ED90E32150804039
:1001A0009040E1F700C0000083E00E9463008111ED
:1001B000FBCF86E00E9453008C0181E3EDE8F0E084
:1001C000DE01119601900D928A95E1F7CE0101961C
:1001D0000E94BA012FEF83ED90E3215080409040C0
:1001E000E1F700C0000084E00E9463008111FBCFB2
:1001F00086E00E945300801B910B9C0140E050E080
:1002000060EA76E881E090E00E946702222E332EB9
:10021000C42E22965FAF2297509540953095219538
:100220003F4F4F4F5F4FD8010E9486022B013C0188
:100230000F2EF4E68F2E912CA12CB12CF02D0F2E29
:10024000FEEBEF2EF0E0FF2EF02D8E010F5F1F4F23
:100250000F2EFEE2DF2EF02D86E00E945300DC011F
:10026000222D332D4C2D22965FAD22970E948602BF
:10027000640D751D861D971DA50194010E946702DE
:100280005F934F933F932F93FF92EF921F930F93A0
:100290000E94A0028C898D8BDC8AC8010E94BA0161
:1002A0002FEF83ED90E3215080409040E1F700C0B4
:1002B00000000FB6F894DEBF0FBECDBFCDCF1F92AA
:1002C0000F920FB60F9211248F939F938091DE00AF
:1002D0009091DF0001969093DF008093DE009F9164
:1002E0008F910F900FBE0F901F901895CF93CFB79F
:1002F000DC01CB01880F991FAA1FBB1F880F991F14
:10030000AA1FBB1F9C01AD01220F331F441F551FA5
:10031000220F331F441F551F60E074E284EF90E00A
:100320000E9445022150310929B9F89488E98AB917
:1003300086E880BD8CB15F99FDCF80EC8BB9CFBFD3
:1003400040E462EE70E08AE291E00E946E0040E4D8
:1003500062E371E082E291E00E946E0082E291E04D
:10036000CF910895682F82E291E00E947800559A1B
:1003700090E008950F931F93CF93DF93EC018E01CC
:100380008881882339F00E94B2012196F80180818A
:100390008111F5CFDF91CF911F910F9108951F9299
:1003A0000F920FB60F9211242F933F934F938F9379
:1003B0009F93AF93BF93EF93FF934CB1EAE2F1E0C9
:1003C000908181819817C0F4A481B5819D012F5F30
:1003D0003F4F4C938781815021F480912B01281B42
:1003E0003109EAE2F1E08783358324839FB7F894EB
:1003F00080818F5F80839FBFFF91EF91BF91AF910D
:100400009F918F914F913F912F910F900FBE0F9021
:100410001F9018951F920F920FB60F9211242F93D1
:100420003F938F939F93AF93BF93EF93FF938091ED
:1004300022018823E1F0E2E2F1E0A281B3819D0193
:100440002F5F3F4F9C918681815021F48091230141
:10045000281B3109E2E2F1E03383228386832FB740
:10046000F8948081815080832FBF9CB901C055983A
:10047000FF91EF91BF91AF919F918F913F912F91FC
:100480000F900FBE0F901F901895A1E21A2EAA1B75
:10049000BB1BFD010DC0AA1FBB1FEE1FFF1FA21734
:1004A000B307E407F50720F0A21BB30BE40BF50B31
:1004B000661F771F881F991F1A9469F760957095BA
:1004C000809590959B01AC01BD01CF010895052E4B
:1004D00097FB1EF400940E947E0257FD07D00E94F5
:1004E000450207FC03D04EF40C947E0250954095D3
:1004F000309521953F4F4F4F5F4F089590958095D0
:10050000709561957F4F8F4F9F4F08950E94910284
:10051000A59F900DB49F900DA49F800D911D112457
:100520000895A29FB001B39FC001A39F700D811DCC
:100530001124911DB29F700D811D1124911D0895EC
:10054000AEE0B0E0E6EAF2E00C9461050D891E89A8
:1005500086E08C831A8309838FEF9FE79E838D83C8
:10056000AE01475E5F4F6F89788DCE0101960E9484
:10057000C202EF81F885E00FF11F10822E96E4E0B1
:100580000C947D05ABE0B0E0E8ECF2E00C94530590
:100590006C017B018A01FC0117821682838181FF35
:1005A000CCC1CE0101963C01F6019381F70193FD88
:1005B000859193FF81917F01882309F4BAC1853227
:1005C00039F493FD859193FF81917F01853229F460
:1005D000B60190E00E94B904E7CF912C212C312C78
:1005E000FFE1F315D8F08B3279F038F4803279F0EE
:1005F0008332A1F4232D20611DC08D3261F0803340
:1006000069F4232D216016C0832D8260382EE32DDE
:10061000E4603E2E2AC0F32DF8601DC037FC2DC0CB
:1006200020ED280F2A3040F08E32B9F436FC81C11B
:10063000232D2064322E19C036FE06C08AE0989E13
:10064000200D1124922E11C0EAE02E9E200D1124BF
:10065000222EF32DF0623F2E08C08C3621F4832D1C
:100660008068382E02C0883641F4F70193FD8591E9
:1006700093FF81917F018111B3CF982F9F7D955476
:10068000933028F40C5F1F4F9FE399830DC083368E
:1006900031F0833771F0833509F059C021C0F8017A
:1006A000808189830E5F1F4F88248394912C53018E
:1006B00013C02801F2E04F0E511CF801A080B18058
:1006C00036FE03C0692D70E002C06FEF7FEFC501F9
:1006D0000E94AE044C018201F32DFF773F2E16C01D
:1006E000280122E0420E511CF801A080B18036FEA4
:1006F00003C0692D70E002C06FEF7FEFC5010E945B
:10070000A3044C01F32DF0683F2E820133FC1BC083
:10071000822D90E088169906B0F4B60180E290E050
:100720000E94B9042A94F4CFF50137FC859137FE75
:1007300081915F01B60190E00E94B90421102A94D2
:1007400021E0821A91088114910471F7E8C084367F
:1007500011F0893641F5F80137FE07C060817181DB
:10076000828193810C5F1F4F08C060817181072EC9
:10077000000C880B990B0E5F1F4FF32DFF763F2E59
:1007800097FF09C090958095709561957F4F8F4F29
:100790009F4FF0683F2E2AE030E0A3010E94F5044D
:1007A000882E861845C0853731F4232D2F7EB22E32
:1007B0002AE030E025C0932D997FB92E8F36C1F005
:1007C00018F4883579F0B5C0803719F0883721F0F2
:1007D000B0C0E92FE061BE2EB4FE0DC0FB2DF46069
:1007E000BF2E09C034FE0AC0292F2660B22E06C0D3
:1007F00028E030E005C020E130E002C020E132E036
:10080000F801B7FE07C060817181828193810C5F1E
:100810001F4F06C06081718180E090E00E5F1F4F26
:10082000A3010E94F504882E8618FB2DFF773F2E2A
:1008300036FE0DC0232D2E7FA22E891458F434FECF
:100840000BC032FC09C0832D8E7EA82E05C0B82CAB
:10085000A32C03C0B82C01C0B92CA4FE0FC0FE010C
:10086000E80DF11D8081803321F49A2D997EA92E07
:1008700009C0A2FE06C0B394B39404C08A2D867842
:1008800009F0B394A3FC11C0A0FE06C0B21488F412
:10089000280C922C9B180EC0B21460F4B60180E2B2
:1008A00090E00E94B904B394F7CFB21418F42B1857
:1008B00002C0982C212CA4FE10C0B60180E390E069
:1008C0000E94B904A2FE17C0A1FC03C088E790E013
:1008D00002C088E590E0B6010CC08A2D867859F0F8
:1008E000A1FE02C08BE201C080E2A7FC8DE2B6014E
:1008F00090E00E94B904891438F4B60180E390E0D6
:100900000E94B9049A94F7CF8A94F301E80DF11D7F
:100910008081B60190E00E94B9048110F5CF2220B9
:1009200009F442CEB60180E290E00E94B9042A9414
:10093000F6CFF6018681978102C08FEF9FEF2B964D
:10094000E2E10C946F05FC010590615070400110CC
:10095000D8F7809590958E0F9F1F0895FC016150E8
:10096000704001900110D8F7809590958E0F9F1FD1
:1009700008950F931F93CF93DF93FB01238121FDF4
:1009800003C08FEF9FEF2CC022FF16C04681578116
:10099000248135814217530744F4A081B1819D0120
:1009A0002F5F3F4F318320838C93268137812F5FC8
:1009B0003F4F3783268314C08B01EC01FB01008479
:1009C000F185E02D0995892BE1F6D80116968D91D8
:1009D0009C911797019617969C938E931697CE012C
:1009E000DF91CF911F910F910895FA01AA27283026
:1009F00051F1203181F1E8946F936E7F6E5F7F4FEC
:100A00008F4F9F4FAF4FB1E03ED0B4E03CD0670F67
:100A1000781F891F9A1FA11D680F791F8A1F911DBA
:100A2000A11D6A0F711D811D911DA11D20D009F40A
:100A300068943F912AE0269F11243019305D31934C
:100A4000DEF6CF010895462F4770405D4193B3E035
:100A50000FD0C9F7F6CF462F4F70405D4A3318F0DC
:100A6000495D31FD4052419302D0A9F7EACFB4E08D
:100A7000A6959795879577956795BA95C9F7009745
:100A80006105710508959B01AC010A2E06945795E6
:100A9000479537952795BA95C9F7620F731F841F3D
:100AA000951FA01D08952F923F924F925F926F92D3
:100AB0007F928F929F92AF92BF92CF92DF92EF92EE
:100AC000FF920F931F93CF93DF93CDB7DEB7CA1B6F
:100AD000DB0B0FB6F894DEBF0FBECDBF09942A889A
:100AE000398848885F846E847D848C849B84AA8442
:100AF000B984C884DF80EE80FD800C811B81AA81CF
:100B0000B981CE0FD11D0FB6F894DEBF0FBECDBF99
:080B1000ED010895F894FFCFF8
:100B18000D0A5075742073656E736F7220696E20AC
:100B280069636520776174657220616E64207072F4
:100B380065737320627574746F6E0D0A000D0A5028
:100B480075742073656E736F7220696E20626F69A9
:100B58006C696E6720776174657220616E642070BD
:100B68007265737320627574746F6E0D0A000D0AD6
:100B780054656D7065726174757265203D2025300D
:0E0B8800346C6420646567432C200D0A000065
:00000001FF
